:100000000C9434000C9446000C9446000C9446006A
:100010000C9446000C9446000C9446000C94460048
:100020000C9446000C9446000C9446000C94460038
:100030000C9446000C9446000C9446000C94460028
:100040000C9446000C9446000C9446000C94460018
:100050000C9446000C9446000C9446000C94460008
:100060000C9446000C94460011241FBECFEFD8E03C
:10007000DEBFCDBF21E0A0E0B1E001C01D92A13004
:10008000B207E1F70E9448000C948F010C94000025
:100090000E944A00CF93DF93CDB7DEB728970FB603
:1000A000F894DEBF0FBECDBF8FB7F89490910001DA
:1000B000913019F48FBF0E94880191E09093000164
:1000C0008FBF86B1887096B19470982B86B182707C
:1000D000892B96B19170982B990F906A9093BA00E2
:1000E00084E48093BC005A98529A5B98539A5C9827
:1000F000549A5D98559A5E98569A5F98579A2898A0
:10010000209A2998219A2D98259A24982C9A81E052
:1001100091E098878F839E838D839C838B839A83C2
:1001200089832D9A84EC9E012F5F3F4F43E150E07D
:1001300067E070E093B19071903009F02CC02D9879
:100140009091B90098380CF023C0E091BB00FE2FCD
:10015000F6959F2F9695969593709330B9F0F57517
:10016000AE2FAF1BFA2FF373A695A695A373AF0F0F
:10017000FA2FF295FA0FF370F03041F4E295EF7038
:10018000E695AE2FBB27A20FB31F9C938093BC00B4
:1001900095B19062BBC09981EBB1903019F091306C
:1001A000E46001C0EB7FEBB9FA013197F1F7EA8126
:1001B000FBB1E23011F0E13011F4F86001C0F77FDB
:1001C000FBB9DB011197F1F7FBB1923019F09130D7
:1001D000FB7F01C0F460FBB9DB011197F1F79B8154
:1001E000FBB1923011F0913011F4F06101C0FF7E4B
:1001F000FBB9DB011197F1F7FBB1E23019F0E13007
:10020000F77F01C0F860FBB9FB013197F1F7EC8192
:10021000FBB1E23011F0E13011F4F06201C0FF7D7A
:10022000FBB9DB011197F1F7FBB1923019F0913076
:10023000FF7E01C0F061FBB9DB011197F1F79D81F1
:10024000FBB1923011F0913011F4F06401C0FF7BEA
:10025000FBB9DB011197F1F7FBB1E23019F0E130A6
:10026000FF7D01C0F062FBB9FB013197F1F7EE8130
:10027000FBB1E23011F0E13011F4F06801C0FF771A
:10028000FBB9DB011197F1F7FBB1923019F0913016
:10029000FF7B01C0F064FBB9DB011197F1F79F818F
:1002A000F5B1923011F0913011F4F16001C0FE7F90
:1002B000F5B9DB011197F1F7FBB1E23019F0E1304C
:1002C000FF7701C0F068FBB9FB013197F1F7E885D2
:1002D000F5B1E23011F0E13011F4F26001C0FD7FC0
:1002E000F5B9DB011197F1F7F5B1923019F09130C2
:1002F000FE7F01C0F160F5B9DB011197F1F795B10F
:10030000E23019F0E1309D7F01C0926095B912CFC3
:100310000E948A010E948C010E948E01FFCFF894F6
:02032000FFCF0D
:00000001FF
